{"abi":[{"type":"function","name":"get","inputs":[],"outputs":[{"name":"","type":"string","internalType":"string"}],"stateMutability":"view"},{"type":"function","name":"save","inputs":[{"name":"hash","type":"string","internalType":"string"}],"outputs":[],"stateMutability":"nonpayable"}],"bytecode":{"object":"0x608060405234801561001057600080fd5b5061036a806100206000396000f3fe608060405234801561001057600080fd5b50600436106100365760003560e01c806338e48f061461003b5780636d4ce63c14610050575b600080fd5b61004e610049366004610112565b61006e565b005b610058610080565b6040516100659190610184565b60405180910390f35b600061007b828483610273565b505050565b60606000805461008f906101e9565b80601f01602080910402602001604051908101604052809291908181526020018280546100bb906101e9565b80156101085780601f106100dd57610100808354040283529160200191610108565b820191906000526020600020905b8154815290600101906020018083116100eb57829003601f168201915b5050505050905090565b6000806020838503121561012557600080fd5b823567ffffffffffffffff8082111561013d57600080fd5b818501915085601f83011261015157600080fd5b81358181111561016057600080fd5b86602082850101111561017257600080fd5b60209290920196919550909350505050565b60006020808352835180602085015260005b818110156101b257858101830151858201604001528201610196565b506000604082860101526040601f19601f8301168501019250505092915050565b634e487b7160e01b600052604160045260246000fd5b600181811c908216806101fd57607f821691505b60208210810361021d57634e487b7160e01b600052602260045260246000fd5b50919050565b601f82111561007b576000816000526020600020601f850160051c8101602086101561024c5750805b601f850160051c820191505b8181101561026b57828155600101610258565b505050505050565b67ffffffffffffffff83111561028b5761028b6101d3565b61029f8361029983546101e9565b83610223565b6000601f8411600181146102d357600085156102bb5750838201355b600019600387901b1c1916600186901b17835561032d565b600083815260209020601f19861690835b8281101561030457868501358255602094850194600190920191016102e4565b50868210156103215760001960f88860031b161c19848701351681555b505060018560011b0183555b505050505056fea26469706673582212207f901c7b3c9461152fe9712da9914687ac9b571af48140525af4a298a433f37564736f6c63430008160033","linkReferences":{}},"methodIdentifiers":{"get()":"6d4ce63c","save(string)":"38e48f06"},"id":28}