{"abi":[{"type":"function","name":"create","inputs":[{"name":"entity","type":"address","internalType":"address"},{"name":"amount","type":"uint256","internalType":"uint256"}],"outputs":[],"stateMutability":"nonpayable"},{"type":"function","name":"get","inputs":[{"name":"station","type":"address","internalType":"address"},{"name":"entity","type":"address","internalType":"address"}],"outputs":[{"name":"","type":"tuple","internalType":"struct Agreement","components":[{"name":"amount","type":"uint256","internalType":"uint256"},{"name":"status","type":"uint8","internalType":"enum Status"}]}],"stateMutability":"view"},{"type":"function","name":"sign","inputs":[{"name":"station","type":"address","internalType":"address"},{"name":"amount","type":"uint256","internalType":"uint256"}],"outputs":[],"stateMutability":"nonpayable"},{"type":"event","name":"Created","inputs":[{"name":"","type":"address","indexed":true,"internalType":"address"},{"name":"","type":"address","indexed":true,"internalType":"address"}],"anonymous":false},{"type":"event","name":"Signed","inputs":[{"name":"","type":"address","indexed":true,"internalType":"address"},{"name":"","type":"address","indexed":true,"internalType":"address"}],"anonymous":false},{"type":"error","name":"ErrAlreadySigned","inputs":[]},{"type":"error","name":"ErrInvalidAmount","inputs":[{"name":"","type":"uint256","internalType":"uint256"}]},{"type":"error","name":"ErrNoAgreement","inputs":[]}],"bytecode":{"object":"0x608060405234801561001057600080fd5b50610450806100206000396000f3fe608060405234801561001057600080fd5b50600436106100415760003560e01c80630ecaea73146100465780635ff64f6d1461005b578063d81e84231461006e575b600080fd5b61005961005436600461036e565b610097565b005b61005961006936600461036e565b610191565b61008161007c366004610398565b61029b565b60405161008e91906103e1565b60405180910390f35b6002336000908152602081815260408083206001600160a01b038716845290915290206001015460ff1660028111156100d2576100d26103cb565b036100f057604051636cb2ea1760e11b815260040160405180910390fd5b604080518082019091528181526020810160019052336000908152602081815260408083206001600160a01b03871684528252909120825181559082015160018083018054909160ff1990911690836002811115610150576101506103cb565b0217905550506040516001600160a01b038416915033907f587ece4cd19692c5be1a4184503d607d45542d2aca0698c0068f52e09ccb541c90600090a35050565b6001600160a01b038216600090815260208181526040808320338452909152812090600182015460ff1660028111156101cc576101cc6103cb565b036101ed576040516001620c73b160e21b0319815260040160405180910390fd5b6002600182015460ff166002811115610208576102086103cb565b0361022657604051636cb2ea1760e11b815260040160405180910390fd5b805482146102515780546040516332bede4760e21b8152600481019190915260240160405180910390fd5b60018101805460ff1916600217905560405133906001600160a01b038516907f2ee4f8121ee0c495531e7371a991f06939bb60d0e1644d9f6503fd30df52baad90600090a3505050565b604080518082018252600080825260208083018290526001600160a01b03868116835282825284832090861683528152838220845180860190955280548552600181015493949293909183019060ff1660028111156102fc576102fc6103cb565b600281111561030d5761030d6103cb565b905250905060008160200151600281111561032a5761032a6103cb565b0361034b576040516001620c73b160e21b0319815260040160405180910390fd5b9392505050565b80356001600160a01b038116811461036957600080fd5b919050565b6000806040838503121561038157600080fd5b61038a83610352565b946020939093013593505050565b600080604083850312156103ab57600080fd5b6103b483610352565b91506103c260208401610352565b90509250929050565b634e487b7160e01b600052602160045260246000fd5b81518152602082015160408201906003811061040d57634e487b7160e01b600052602160045260246000fd5b806020840152509291505056fea2646970667358221220efe6090ee5a6e91c8aafe6254a422125c63161a3f3129bb182a72b1c108a4be664736f6c63430008160033","linkReferences":{}},"methodIdentifiers":{"create(address,uint256)":"0ecaea73","get(address,address)":"d81e8423","sign(address,uint256)":"5ff64f6d"},"id":22}