{"abi":[{"type":"function","name":"get","inputs":[{"name":"entity","type":"address","internalType":"address"}],"outputs":[{"name":"","type":"tuple","internalType":"struct DID","components":[{"name":"location","type":"string","internalType":"string"},{"name":"price","type":"uint256","internalType":"uint256"}]}],"stateMutability":"view"},{"type":"function","name":"remove","inputs":[],"outputs":[],"stateMutability":"nonpayable"},{"type":"function","name":"update","inputs":[{"name":"location","type":"string","internalType":"string"},{"name":"price","type":"uint256","internalType":"uint256"}],"outputs":[],"stateMutability":"nonpayable"},{"type":"event","name":"Removed","inputs":[{"name":"","type":"address","indexed":true,"internalType":"address"}],"anonymous":false},{"type":"event","name":"Updated","inputs":[{"name":"","type":"address","indexed":true,"internalType":"address"},{"name":"location","type":"string","indexed":false,"internalType":"string"},{"name":"price","type":"uint256","indexed":false,"internalType":"uint256"}],"anonymous":false}],"bytecode":{"object":"0x608060405234801561001057600080fd5b50610738806100206000396000f3fe608060405234801561001057600080fd5b50600436106100415760003560e01c80634ee5c2ee14610046578063a7f437791461005b578063c2bc2efc14610063575b600080fd5b6100596100543660046102f9565b61008c565b005b61005961017a565b610076610071366004610371565b6101ca565b60405161008391906103a1565b60405180910390f35b336000908152602081815260409182902091516100ab9183910161043e565b6040516020818303038152906040528051906020012084846040516020016100d49291906104b4565b60405160208183030381529060405280519060200120146100fd57806100fb84868361052b565b505b8060010154821461011057600181018290555b33600090815260208190526040902081908061012c83826105ec565b5060019182015491015560405133907fd83ab1dd1833cbcb07614fd9a2ce724bbe398d4073d799b8b1b5425298c304089061016c908790879087906106c9565b60405180910390a250505050565b3360009081526020819052604081209061019482826102a3565b50600060019190910181905560405133917f066a905b79c0121afe61e3a44e0b14b6bc1ec16d854cdba09efdfc9b6aa9af8191a2565b6040805180820190915260608152600060208201526001600160a01b03821660009081526020819052604090819020815180830190925280548290829061021090610404565b80601f016020809104026020016040519081016040528092919081815260200182805461023c90610404565b80156102895780601f1061025e57610100808354040283529160200191610289565b820191906000526020600020905b81548152906001019060200180831161026c57829003601f168201915b505050505081526020016001820154815250509050919050565b5080546102af90610404565b6000825580601f106102bf575050565b601f0160209004906000526020600020908101906102dd91906102e0565b50565b5b808211156102f557600081556001016102e1565b5090565b60008060006040848603121561030e57600080fd5b833567ffffffffffffffff8082111561032657600080fd5b818601915086601f83011261033a57600080fd5b81358181111561034957600080fd5b87602082850101111561035b57600080fd5b6020928301989097509590910135949350505050565b60006020828403121561038357600080fd5b81356001600160a01b038116811461039a57600080fd5b9392505050565b60006020808352835160406020850152805180606086015260005b818110156103d8578281018401518682016080015283016103bc565b50600060808287010152602086015160408601526080601f19601f830116860101935050505092915050565b600181811c9082168061041857607f821691505b60208210810361043857634e487b7160e01b600052602260045260246000fd5b50919050565b600080835461044c81610404565b600182811680156104645760018114610479576104a8565b60ff19841687528215158302870194506104a8565b8760005260208060002060005b8581101561049f5781548a820152908401908201610486565b50505082870194505b50929695505050505050565b8183823760009101908152919050565b634e487b7160e01b600052604160045260246000fd5b601f821115610526576000816000526020600020601f850160051c810160208610156105035750805b601f850160051c820191505b818110156105225782815560010161050f565b5050505b505050565b67ffffffffffffffff831115610543576105436104c4565b610557836105518354610404565b836104da565b6000601f84116001811461058b57600085156105735750838201355b600019600387901b1c1916600186901b1783556105e5565b600083815260209020601f19861690835b828110156105bc578685013582556020948501946001909201910161059c565b50868210156105d95760001960f88860031b161c19848701351681555b505060018560011b0183555b5050505050565b8181036105f7575050565b6106018254610404565b67ffffffffffffffff811115610619576106196104c4565b61062d816106278454610404565b846104da565b6000601f82116001811461066157600083156106495750848201545b600019600385901b1c1916600184901b1784556105e5565b600085815260209020601f19841690600086815260209020845b8381101561069b578286015482556001958601959091019060200161067b565b50858310156106b95781850154600019600388901b60f8161c191681555b5050505050600190811b01905550565b604081528260408201528284606083013760006060848301015260006060601f19601f860116830101905082602083015294935050505056fea26469706673582212203fb3c35483aca692873523d75f2a67725878d40d8fe9f52d5a64b945862f640a64736f6c63430008160033","linkReferences":{}},"methodIdentifiers":{"get(address)":"c2bc2efc","remove()":"a7f43779","update(string,uint256)":"4ee5c2ee"},"id":26}